{
  "_format": "hh-sol-artifact-1",
  "contractName": "Pool",
  "sourceName": "contracts/Pool.sol",
  "abi": [
    {
      "anonymous": false,
      "inputs": [
        {
          "indexed": true,
          "internalType": "address",
          "name": "token",
          "type": "address"
        },
        {
          "indexed": true,
          "internalType": "address",
          "name": "asset",
          "type": "address"
        }
      ],
      "name": "AssetAdded",
      "type": "event"
    },
    {
      "anonymous": false,
      "inputs": [
        {
          "indexed": true,
          "internalType": "address",
          "name": "sender",
          "type": "address"
        },
        {
          "indexed": false,
          "internalType": "address",
          "name": "token",
          "type": "address"
        },
        {
          "indexed": false,
          "internalType": "uint256",
          "name": "amount",
          "type": "uint256"
        },
        {
          "indexed": false,
          "internalType": "uint256",
          "name": "liquidity",
          "type": "uint256"
        },
        {
          "indexed": true,
          "internalType": "address",
          "name": "to",
          "type": "address"
        }
      ],
      "name": "Deposit",
      "type": "event"
    },
    {
      "anonymous": false,
      "inputs": [
        {
          "indexed": true,
          "internalType": "address",
          "name": "previousDev",
          "type": "address"
        },
        {
          "indexed": true,
          "internalType": "address",
          "name": "newDev",
          "type": "address"
        }
      ],
      "name": "DevUpdated",
      "type": "event"
    },
    {
      "anonymous": false,
      "inputs": [
        {
          "indexed": false,
          "internalType": "uint256",
          "name": "previousHaircut",
          "type": "uint256"
        },
        {
          "indexed": false,
          "internalType": "uint256",
          "name": "newHaircut",
          "type": "uint256"
        }
      ],
      "name": "HaircutRateUpdated",
      "type": "event"
    },
    {
      "anonymous": false,
      "inputs": [
        {
          "indexed": true,
          "internalType": "address",
          "name": "previousOracle",
          "type": "address"
        },
        {
          "indexed": true,
          "internalType": "address",
          "name": "newOracle",
          "type": "address"
        }
      ],
      "name": "OracleUpdated",
      "type": "event"
    },
    {
      "anonymous": false,
      "inputs": [
        {
          "indexed": true,
          "internalType": "address",
          "name": "previousOwner",
          "type": "address"
        },
        {
          "indexed": true,
          "internalType": "address",
          "name": "newOwner",
          "type": "address"
        }
      ],
      "name": "OwnershipTransferred",
      "type": "event"
    },
    {
      "anonymous": false,
      "inputs": [
        {
          "indexed": false,
          "internalType": "address",
          "name": "account",
          "type": "address"
        }
      ],
      "name": "Paused",
      "type": "event"
    },
    {
      "anonymous": false,
      "inputs": [
        {
          "indexed": false,
          "internalType": "uint256",
          "name": "previousPriceDeviation",
          "type": "uint256"
        },
        {
          "indexed": false,
          "internalType": "uint256",
          "name": "newPriceDeviation",
          "type": "uint256"
        }
      ],
      "name": "PriceDeviationUpdated",
      "type": "event"
    },
    {
      "anonymous": false,
      "inputs": [
        {
          "indexed": false,
          "internalType": "uint256",
          "name": "previousRetentionRatio",
          "type": "uint256"
        },
        {
          "indexed": false,
          "internalType": "uint256",
          "name": "newRetentionRatio",
          "type": "uint256"
        }
      ],
      "name": "RetentionRatioUpdated",
      "type": "event"
    },
    {
      "anonymous": false,
      "inputs": [
        {
          "indexed": false,
          "internalType": "uint256",
          "name": "previousK",
          "type": "uint256"
        },
        {
          "indexed": false,
          "internalType": "uint256",
          "name": "newK",
          "type": "uint256"
        },
        {
          "indexed": false,
          "internalType": "uint256",
          "name": "previousN",
          "type": "uint256"
        },
        {
          "indexed": false,
          "internalType": "uint256",
          "name": "newN",
          "type": "uint256"
        },
        {
          "indexed": false,
          "internalType": "uint256",
          "name": "previousC1",
          "type": "uint256"
        },
        {
          "indexed": false,
          "internalType": "uint256",
          "name": "newC1",
          "type": "uint256"
        },
        {
          "indexed": false,
          "internalType": "uint256",
          "name": "previousXThreshold",
          "type": "uint256"
        },
        {
          "indexed": false,
          "internalType": "uint256",
          "name": "newXThreshold",
          "type": "uint256"
        }
      ],
      "name": "SlippageParamsUpdated",
      "type": "event"
    },
    {
      "anonymous": false,
      "inputs": [
        {
          "indexed": true,
          "internalType": "address",
          "name": "sender",
          "type": "address"
        },
        {
          "indexed": false,
          "internalType": "address",
          "name": "fromToken",
          "type": "address"
        },
        {
          "indexed": false,
          "internalType": "address",
          "name": "toToken",
          "type": "address"
        },
        {
          "indexed": false,
          "internalType": "uint256",
          "name": "fromAmount",
          "type": "uint256"
        },
        {
          "indexed": false,
          "internalType": "uint256",
          "name": "toAmount",
          "type": "uint256"
        },
        {
          "indexed": true,
          "internalType": "address",
          "name": "to",
          "type": "address"
        }
      ],
      "name": "Swap",
      "type": "event"
    },
    {
      "anonymous": false,
      "inputs": [
        {
          "indexed": false,
          "internalType": "address",
          "name": "account",
          "type": "address"
        }
      ],
      "name": "Unpaused",
      "type": "event"
    },
    {
      "anonymous": false,
      "inputs": [
        {
          "indexed": true,
          "internalType": "address",
          "name": "sender",
          "type": "address"
        },
        {
          "indexed": false,
          "internalType": "address",
          "name": "token",
          "type": "address"
        },
        {
          "indexed": false,
          "internalType": "uint256",
          "name": "amount",
          "type": "uint256"
        },
        {
          "indexed": false,
          "internalType": "uint256",
          "name": "liquidity",
          "type": "uint256"
        },
        {
          "indexed": true,
          "internalType": "address",
          "name": "to",
          "type": "address"
        }
      ],
      "name": "Withdraw",
      "type": "event"
    },
    {
      "inputs": [
        {
          "internalType": "address",
          "name": "token",
          "type": "address"
        },
        {
          "internalType": "address",
          "name": "asset",
          "type": "address"
        }
      ],
      "name": "addAsset",
      "outputs": [],
      "stateMutability": "nonpayable",
      "type": "function"
    },
    {
      "inputs": [
        {
          "internalType": "address",
          "name": "token",
          "type": "address"
        }
      ],
      "name": "assetOf",
      "outputs": [
        {
          "internalType": "address",
          "name": "",
          "type": "address"
        }
      ],
      "stateMutability": "view",
      "type": "function"
    },
    {
      "inputs": [
        {
          "internalType": "address",
          "name": "token",
          "type": "address"
        },
        {
          "internalType": "uint256",
          "name": "amount",
          "type": "uint256"
        },
        {
          "internalType": "address",
          "name": "to",
          "type": "address"
        },
        {
          "internalType": "uint256",
          "name": "deadline",
          "type": "uint256"
        }
      ],
      "name": "deposit",
      "outputs": [
        {
          "internalType": "uint256",
          "name": "liquidity",
          "type": "uint256"
        }
      ],
      "stateMutability": "nonpayable",
      "type": "function"
    },
    {
      "inputs": [],
      "name": "getC1",
      "outputs": [
        {
          "internalType": "uint256",
          "name": "",
          "type": "uint256"
        }
      ],
      "stateMutability": "view",
      "type": "function"
    },
    {
      "inputs": [],
      "name": "getDev",
      "outputs": [
        {
          "internalType": "address",
          "name": "",
          "type": "address"
        }
      ],
      "stateMutability": "view",
      "type": "function"
    },
    {
      "inputs": [],
      "name": "getHaircutRate",
      "outputs": [
        {
          "internalType": "uint256",
          "name": "",
          "type": "uint256"
        }
      ],
      "stateMutability": "view",
      "type": "function"
    },
    {
      "inputs": [],
      "name": "getMaxPriceDeviation",
      "outputs": [
        {
          "internalType": "uint256",
          "name": "",
          "type": "uint256"
        }
      ],
      "stateMutability": "view",
      "type": "function"
    },
    {
      "inputs": [],
      "name": "getPriceOracle",
      "outputs": [
        {
          "internalType": "address",
          "name": "",
          "type": "address"
        }
      ],
      "stateMutability": "view",
      "type": "function"
    },
    {
      "inputs": [],
      "name": "getRetentionRatio",
      "outputs": [
        {
          "internalType": "uint256",
          "name": "",
          "type": "uint256"
        }
      ],
      "stateMutability": "view",
      "type": "function"
    },
    {
      "inputs": [],
      "name": "getSlippageParamK",
      "outputs": [
        {
          "internalType": "uint256",
          "name": "",
          "type": "uint256"
        }
      ],
      "stateMutability": "view",
      "type": "function"
    },
    {
      "inputs": [],
      "name": "getSlippageParamN",
      "outputs": [
        {
          "internalType": "uint256",
          "name": "",
          "type": "uint256"
        }
      ],
      "stateMutability": "view",
      "type": "function"
    },
    {
      "inputs": [],
      "name": "getTokenAddresses",
      "outputs": [
        {
          "internalType": "address[]",
          "name": "",
          "type": "address[]"
        }
      ],
      "stateMutability": "view",
      "type": "function"
    },
    {
      "inputs": [],
      "name": "getXThreshold",
      "outputs": [
        {
          "internalType": "uint256",
          "name": "",
          "type": "uint256"
        }
      ],
      "stateMutability": "view",
      "type": "function"
    },
    {
      "inputs": [],
      "name": "initialize",
      "outputs": [],
      "stateMutability": "nonpayable",
      "type": "function"
    },
    {
      "inputs": [],
      "name": "owner",
      "outputs": [
        {
          "internalType": "address",
          "name": "",
          "type": "address"
        }
      ],
      "stateMutability": "view",
      "type": "function"
    },
    {
      "inputs": [],
      "name": "pause",
      "outputs": [],
      "stateMutability": "nonpayable",
      "type": "function"
    },
    {
      "inputs": [],
      "name": "paused",
      "outputs": [
        {
          "internalType": "bool",
          "name": "",
          "type": "bool"
        }
      ],
      "stateMutability": "view",
      "type": "function"
    },
    {
      "inputs": [
        {
          "internalType": "address",
          "name": "initialToken",
          "type": "address"
        },
        {
          "internalType": "address",
          "name": "wantedToken",
          "type": "address"
        }
      ],
      "name": "quoteMaxInitialAssetWithdrawable",
      "outputs": [
        {
          "internalType": "uint256",
          "name": "maxInitialAssetAmount",
          "type": "uint256"
        }
      ],
      "stateMutability": "view",
      "type": "function"
    },
    {
      "inputs": [
        {
          "internalType": "address",
          "name": "fromToken",
          "type": "address"
        },
        {
          "internalType": "address",
          "name": "toToken",
          "type": "address"
        },
        {
          "internalType": "uint256",
          "name": "fromAmount",
          "type": "uint256"
        }
      ],
      "name": "quotePotentialSwap",
      "outputs": [
        {
          "internalType": "uint256",
          "name": "potentialOutcome",
          "type": "uint256"
        },
        {
          "internalType": "uint256",
          "name": "haircut",
          "type": "uint256"
        }
      ],
      "stateMutability": "view",
      "type": "function"
    },
    {
      "inputs": [
        {
          "internalType": "address",
          "name": "token",
          "type": "address"
        },
        {
          "internalType": "uint256",
          "name": "liquidity",
          "type": "uint256"
        }
      ],
      "name": "quotePotentialWithdraw",
      "outputs": [
        {
          "internalType": "uint256",
          "name": "amount",
          "type": "uint256"
        },
        {
          "internalType": "uint256",
          "name": "fee",
          "type": "uint256"
        },
        {
          "internalType": "bool",
          "name": "enoughCash",
          "type": "bool"
        }
      ],
      "stateMutability": "view",
      "type": "function"
    },
    {
      "inputs": [
        {
          "internalType": "address",
          "name": "initialToken",
          "type": "address"
        },
        {
          "internalType": "address",
          "name": "wantedToken",
          "type": "address"
        },
        {
          "internalType": "uint256",
          "name": "liquidity",
          "type": "uint256"
        }
      ],
      "name": "quotePotentialWithdrawFromOtherAsset",
      "outputs": [
        {
          "internalType": "uint256",
          "name": "amount",
          "type": "uint256"
        },
        {
          "internalType": "uint256",
          "name": "fee",
          "type": "uint256"
        }
      ],
      "stateMutability": "view",
      "type": "function"
    },
    {
      "inputs": [
        {
          "internalType": "address",
          "name": "key",
          "type": "address"
        }
      ],
      "name": "removeAsset",
      "outputs": [],
      "stateMutability": "nonpayable",
      "type": "function"
    },
    {
      "inputs": [],
      "name": "renounceOwnership",
      "outputs": [],
      "stateMutability": "nonpayable",
      "type": "function"
    },
    {
      "inputs": [
        {
          "internalType": "address",
          "name": "dev",
          "type": "address"
        }
      ],
      "name": "setDev",
      "outputs": [],
      "stateMutability": "nonpayable",
      "type": "function"
    },
    {
      "inputs": [
        {
          "internalType": "uint256",
          "name": "haircutRate_",
          "type": "uint256"
        }
      ],
      "name": "setHaircutRate",
      "outputs": [],
      "stateMutability": "nonpayable",
      "type": "function"
    },
    {
      "inputs": [
        {
          "internalType": "uint256",
          "name": "maxPriceDeviation_",
          "type": "uint256"
        }
      ],
      "name": "setMaxPriceDeviation",
      "outputs": [],
      "stateMutability": "nonpayable",
      "type": "function"
    },
    {
      "inputs": [
        {
          "internalType": "address",
          "name": "priceOracle",
          "type": "address"
        }
      ],
      "name": "setPriceOracle",
      "outputs": [],
      "stateMutability": "nonpayable",
      "type": "function"
    },
    {
      "inputs": [
        {
          "internalType": "uint256",
          "name": "retentionRatio_",
          "type": "uint256"
        }
      ],
      "name": "setRetentionRatio",
      "outputs": [],
      "stateMutability": "nonpayable",
      "type": "function"
    },
    {
      "inputs": [
        {
          "internalType": "uint256",
          "name": "k_",
          "type": "uint256"
        },
        {
          "internalType": "uint256",
          "name": "n_",
          "type": "uint256"
        },
        {
          "internalType": "uint256",
          "name": "c1_",
          "type": "uint256"
        },
        {
          "internalType": "uint256",
          "name": "xThreshold_",
          "type": "uint256"
        }
      ],
      "name": "setSlippageParams",
      "outputs": [],
      "stateMutability": "nonpayable",
      "type": "function"
    },
    {
      "inputs": [
        {
          "internalType": "address",
          "name": "fromToken",
          "type": "address"
        },
        {
          "internalType": "address",
          "name": "toToken",
          "type": "address"
        },
        {
          "internalType": "uint256",
          "name": "fromAmount",
          "type": "uint256"
        },
        {
          "internalType": "uint256",
          "name": "minimumToAmount",
          "type": "uint256"
        },
        {
          "internalType": "address",
          "name": "to",
          "type": "address"
        },
        {
          "internalType": "uint256",
          "name": "deadline",
          "type": "uint256"
        }
      ],
      "name": "swap",
      "outputs": [
        {
          "internalType": "uint256",
          "name": "actualToAmount",
          "type": "uint256"
        },
        {
          "internalType": "uint256",
          "name": "haircut",
          "type": "uint256"
        }
      ],
      "stateMutability": "nonpayable",
      "type": "function"
    },
    {
      "inputs": [
        {
          "internalType": "address",
          "name": "newOwner",
          "type": "address"
        }
      ],
      "name": "transferOwnership",
      "outputs": [],
      "stateMutability": "nonpayable",
      "type": "function"
    },
    {
      "inputs": [],
      "name": "unpause",
      "outputs": [],
      "stateMutability": "nonpayable",
      "type": "function"
    },
    {
      "inputs": [
        {
          "internalType": "address",
          "name": "token",
          "type": "address"
        },
        {
          "internalType": "uint256",
          "name": "liquidity",
          "type": "uint256"
        },
        {
          "internalType": "uint256",
          "name": "minimumAmount",
          "type": "uint256"
        },
        {
          "internalType": "address",
          "name": "to",
          "type": "address"
        },
        {
          "internalType": "uint256",
          "name": "deadline",
          "type": "uint256"
        }
      ],
      "name": "withdraw",
      "outputs": [
        {
          "internalType": "uint256",
          "name": "amount",
          "type": "uint256"
        }
      ],
      "stateMutability": "nonpayable",
      "type": "function"
    },
    {
      "inputs": [
        {
          "internalType": "address",
          "name": "initialToken",
          "type": "address"
        },
        {
          "internalType": "address",
          "name": "wantedToken",
          "type": "address"
        },
        {
          "internalType": "uint256",
          "name": "liquidity",
          "type": "uint256"
        },
        {
          "internalType": "uint256",
          "name": "minimumAmount",
          "type": "uint256"
        },
        {
          "internalType": "address",
          "name": "to",
          "type": "address"
        },
        {
          "internalType": "uint256",
          "name": "deadline",
          "type": "uint256"
        }
      ],
      "name": "withdrawFromOtherAsset",
      "outputs": [
        {
          "internalType": "uint256",
          "name": "amount",
          "type": "uint256"
        }
      ],
      "stateMutability": "nonpayable",
      "type": "function"
    }
  ],
  "bytecode": "0x608060405234801561001057600080fd5b50614b21806100206000396000f3fe608060405234801561001057600080fd5b50600436106102065760003560e01c80638456cb591161011a578063cb733d7a116100ad578063df2201811161007c578063df2201811461041b578063ee8c24b81461042e578063f2fde38b14610443578063f57e84d514610456578063fca513a81461046957600080fd5b8063cb733d7a146103e3578063d477f05f146103ec578063da489997146103ff578063ddcbc5161461041257600080fd5b80639908fc8b116100e95780639908fc8b146103a15780639ee4c057146103b4578063a4275ceb146103c7578063a76f54d2146103da57600080fd5b80638456cb59146103455780638da5cb5b1461034d578063907448ed1461035e57806390d250741461038e57600080fd5b8063530e784f1161019d57806371f962111161016c57806371f962111461030f5780637727c655146103225780637a1c36d11461032b5780637fdd5a8e146103345780638129fc1c1461033d57600080fd5b8063530e784f146102d557806355af008a146102e85780635c975abb146102f1578063715018a61461030757600080fd5b80633f4ba83a116101d95780633f4ba83a1461027d57806343c2e2f51461028757806344db964a146102af5780634a5e42b1146102c257600080fd5b806309a5fca31461020b57806309bb9267146102315780630f91f06f146102575780632a803b5e1461026a575b600080fd5b61021e61021936600461442c565b61047b565b6040519081526020015b60405180910390f35b610110546001600160a01b03165b6040516001600160a01b039091168152602001610228565b61021e61026536600461447e565b6105fe565b61021e6102783660046144e5565b610e59565b61028561114e565b005b61029a61029536600461451e565b61119f565b60408051928352602083019190915201610228565b6102856102bd36600461455f565b6113ef565b6102856102d0366004614578565b611471565b6102856102e3366004614578565b6115e3565b6101095461021e565b60975460ff166040519015158152602001610228565b610285611691565b61023f61031d366004614578565b6116c5565b61010a5461021e565b61010c5461021e565b61010d5461021e565b6102856116d6565b610285611809565b6033546001600160a01b031661023f565b61037161036c366004614595565b611858565b604080519384526020840192909252151590820152606001610228565b61021e61039c3660046145c1565b61190c565b61029a6103af36600461447e565b611a95565b6102856103c236600461455f565b611f87565b61029a6103d536600461451e565b612009565b61010b5461021e565b61010e5461021e565b6102856103fa366004614578565b612339565b61028561040d3660046144e5565b6123e7565b61010f5461021e565b610285610429366004614609565b612504565b6104366125d9565b604051610228919061463b565b610285610451366004614578565b61263f565b61028561046436600461455f565b6126d7565b610111546001600160a01b031661023f565b600081428110156104a75760405162461bcd60e51b815260040161049e90614688565b60405180910390fd5b600260655414156104ca5760405162461bcd60e51b815260040161049e906146a9565b600260655560975460ff16156104f25760405162461bcd60e51b815260040161049e906146e0565b600086116105365760405162461bcd60e51b815260206004820152601160248201527016915493d7d054d4d15517d05353d55395607a1b604482015260640161049e565b6001600160a01b03871661055c5760405162461bcd60e51b815260040161049e9061470a565b6001600160a01b0384166105825760405162461bcd60e51b815260040161049e9061470a565b600061058d88612759565b905061059b818888886127d5565b604080516001600160a01b038b81168252602082018490529181018a905291945086169033907ffb80d861da582b723be2d19507ce3e03851820c464abea89156ec77e089b1ad99060600160405180910390a35050600160655595945050505050565b600081428110156106215760405162461bcd60e51b815260040161049e90614688565b600260655414156106445760405162461bcd60e51b815260040161049e906146a9565b600260655560975460ff161561066c5760405162461bcd60e51b815260040161049e906146e0565b600086116106b05760405162461bcd60e51b815260206004820152601160248201527016915493d7d054d4d15517d05353d55395607a1b604482015260640161049e565b6001600160a01b0387166106d65760405162461bcd60e51b815260040161049e9061470a565b6001600160a01b0388166106fc5760405162461bcd60e51b815260040161049e9061470a565b6001600160a01b0384166107225760405162461bcd60e51b815260040161049e9061470a565b600061072d89612759565b9050600061073a89612759565b9050816001600160a01b0316637e1317fa6040518163ffffffff1660e01b815260040160206040518083038186803b15801561077557600080fd5b505afa158015610789573d6000803e3d6000fd5b505050506040513d601f19601f820116820180604052508101906107ad9190614728565b6001600160a01b0316816001600160a01b0316637e1317fa6040518163ffffffff1660e01b815260040160206040518083038186803b1580156107ef57600080fd5b505afa158015610803573d6000803e3d6000fd5b505050506040513d601f19601f820116820180604052508101906108279190614728565b6001600160a01b03161461084d5760405162461bcd60e51b815260040161049e90614745565b6108578a8a612988565b6000816001600160a01b031663313ce5676040518163ffffffff1660e01b815260040160206040518083038186803b15801561089257600080fd5b505afa1580156108a6573d6000803e3d6000fd5b505050506040513d601f19601f820116820180604052508101906108ca919061476b565b6108d590600a614888565b836001600160a01b031663313ce5676040518163ffffffff1660e01b815260040160206040518083038186803b15801561090e57600080fd5b505afa158015610922573d6000803e3d6000fd5b505050506040513d601f19601f82011682018060405250810190610946919061476b565b61095190600a614888565b61095b908b614897565b61096591906148cc565b90506000811161099f5760405162461bcd60e51b8152602060048201526005602482015264445553543f60d81b604482015260640161049e565b6109b46001600160a01b038416338584612b6c565b60006109c0838b612bc6565b929850919250829150610a0990505760405162461bcd60e51b815260206004820152600f60248201526e09c9ea8be8a9c9eaa8e90be8682a69608b1b604482015260640161049e565b670de0b6b3a7640000610b08846001600160a01b031663705727b56040518163ffffffff1660e01b815260040160206040518083038186803b158015610a4e57600080fd5b505afa158015610a62573d6000803e3d6000fd5b505050506040513d601f19601f82011682018060405250810190610a8691906148e0565b88866001600160a01b031663961be3916040518163ffffffff1660e01b815260040160206040518083038186803b158015610ac057600080fd5b505afa158015610ad4573d6000803e3d6000fd5b505050506040513d601f19601f82011682018060405250810190610af891906148e0565b610b0291906148f9565b90612f64565b1015610b465760405162461bcd60e51b815260206004820152600d60248201526c434f565f524154494f5f4c4f5760981b604482015260640161049e565b85891115610b665760405162461bcd60e51b815260040161049e90614910565b6000846001600160a01b03166318160ddd6040518163ffffffff1660e01b815260040160206040518083038186803b158015610ba157600080fd5b505afa158015610bb5573d6000803e3d6000fd5b505050506040513d601f19601f82011682018060405250810190610bd991906148e0565b83866001600160a01b031663705727b56040518163ffffffff1660e01b815260040160206040518083038186803b158015610c1357600080fd5b505afa158015610c27573d6000803e3d6000fd5b505050506040513d601f19601f82011682018060405250810190610c4b91906148e0565b610c559190614897565b610c5f91906148cc565b604051632770a7eb60e21b81526001600160a01b0387166004820181905260248201869052919250639dc29fac90604401600060405180830381600087803b158015610caa57600080fd5b505af1158015610cbe573d6000803e3d6000fd5b505060405163d8b8785360e01b8152600481018490526001600160a01b038816925063d8b878539150602401600060405180830381600087803b158015610d0457600080fd5b505af1158015610d18573d6000803e3d6000fd5b50506040516313f3df3160e31b8152600481018a90526001600160a01b0387169250639f9ef9889150602401600060405180830381600087803b158015610d5e57600080fd5b505af1158015610d72573d6000803e3d6000fd5b5050604051639e79eaa560e01b81526001600160a01b038c81166004830152602482018b905287169250639e79eaa59150604401600060405180830381600087803b158015610dc057600080fd5b505af1158015610dd4573d6000803e3d6000fd5b50505050886001600160a01b0316336001600160a01b03167ffb80d861da582b723be2d19507ce3e03851820c464abea89156ec77e089b1ad98e8a87604051610e3b939291906001600160a01b039390931683526020830191909152604082015260600190565b60405180910390a35050600160655550929998505050505050505050565b6000610e6760975460ff1690565b15610e845760405162461bcd60e51b815260040161049e906146e0565b610e8e8383612988565b6000610e9984612759565b90506000610ea684612759565b90506000610f8f826001600160a01b031663705727b56040518163ffffffff1660e01b815260040160206040518083038186803b158015610ee657600080fd5b505afa158015610efa573d6000803e3d6000fd5b505050506040513d601f19601f82011682018060405250810190610f1e91906148e0565b836001600160a01b031663961be3916040518163ffffffff1660e01b815260040160206040518083038186803b158015610f5757600080fd5b505afa158015610f6b573d6000803e3d6000fd5b505050506040513d601f19601f82011682018060405250810190610b0291906148e0565b9050670de0b6b3a764000081111561114057816001600160a01b031663313ce5676040518163ffffffff1660e01b815260040160206040518083038186803b158015610fda57600080fd5b505afa158015610fee573d6000803e3d6000fd5b505050506040513d601f19601f82011682018060405250810190611012919061476b565b61101d90600a614888565b836001600160a01b031663313ce5676040518163ffffffff1660e01b815260040160206040518083038186803b15801561105657600080fd5b505afa15801561106a573d6000803e3d6000fd5b505050506040513d601f19601f8201168201806040525081019061108e919061476b565b61109990600a614888565b611125846001600160a01b03166318160ddd6040518163ffffffff1660e01b815260040160206040518083038186803b1580156110d557600080fd5b505afa1580156110e9573d6000803e3d6000fd5b505050506040513d601f19601f8201168201806040525081019061110d91906148e0565b61111f670de0b6b3a7640000866148f9565b90612f9f565b61112f9190614897565b61113991906148cc565b9350611145565b600093505b50505092915050565b610110546001600160a01b031633146111955760405162461bcd60e51b81526020600482015260096024820152682327a92124a22222a760b91b604482015260640161049e565b61119d612fbf565b565b6000806111ae60975460ff1690565b156111cb5760405162461bcd60e51b815260040161049e906146e0565b6001600160a01b0385166111f15760405162461bcd60e51b815260040161049e9061470a565b6001600160a01b0384166112175760405162461bcd60e51b815260040161049e9061470a565b836001600160a01b0316856001600160a01b031614156112685760405162461bcd60e51b815260206004820152600c60248201526b53414d455f4144445245535360a01b604482015260640161049e565b600083116112ab5760405162461bcd60e51b815260206004820152601060248201526f16915493d7d19493d357d05353d5539560821b604482015260640161049e565b60006112b686612759565b905060006112c386612759565b9050816001600160a01b0316637e1317fa6040518163ffffffff1660e01b815260040160206040518083038186803b1580156112fe57600080fd5b505afa158015611312573d6000803e3d6000fd5b505050506040513d601f19601f820116820180604052508101906113369190614728565b6001600160a01b0316816001600160a01b0316637e1317fa6040518163ffffffff1660e01b815260040160206040518083038186803b15801561137857600080fd5b505afa15801561138c573d6000803e3d6000fd5b505050506040513d601f19601f820116820180604052508101906113b09190614728565b6001600160a01b0316146113d65760405162461bcd60e51b815260040161049e90614745565b6113e1828287613052565b909890975095505050505050565b6033546001600160a01b031633146114195760405162461bcd60e51b815260040161049e90614938565b670de0b6b3a764000081111561142e57600080fd5b61010e5460408051918252602082018390527fbc341359e3658046c114365fc4bf0a6bfe11e53d72faf8ac4fe19b53aec6b3f9910160405180910390a161010e55565b6033546001600160a01b0316331461149b5760405162461bcd60e51b815260040161049e90614938565b6001600160a01b0381166000908152610115602052604090205460ff166114bf5750565b6001600160a01b038116600090815261011560209081526040808320805460ff19169055610113825280832080546001600160a01b031916905561011490915281205461011254909190611515906001906148f9565b9050600061011260000182815481106115305761153061496d565b60009182526020808320909101546001600160a01b0390811680845261011490925260408084208790559087168352822091909155610112805491925082918590811061157f5761157f61496d565b600091825260209091200180546001600160a01b0319166001600160a01b03929092169190911790556101128054806115ba576115ba614983565b600082815260209020810160001990810180546001600160a01b03191690550190555050505b50565b6033546001600160a01b0316331461160d5760405162461bcd60e51b815260040161049e90614938565b6001600160a01b0381166116335760405162461bcd60e51b815260040161049e9061470a565b610111546040516001600160a01b038084169216907f078c3b417dadf69374a59793b829c52001247130433427049317bde56607b1b790600090a361011180546001600160a01b0319166001600160a01b0392909216919091179055565b6033546001600160a01b031633146116bb5760405162461bcd60e51b815260040161049e90614938565b61119d600061335e565b60006116d082612759565b92915050565b600054610100900460ff166116f15760005460ff16156116f5565b303b155b6117585760405162461bcd60e51b815260206004820152602e60248201527f496e697469616c697a61626c653a20636f6e747261637420697320616c72656160448201526d191e481a5b9a5d1a585b1a5e995960921b606482015260840161049e565b600054610100900460ff1615801561177a576000805461ffff19166101011790555b6117826133b0565b61178a6133df565b61179261340d565b6512309ce5400061010955600761010a5567053b1daa2fd9836461010b55670493b9f4e9de52f761010c5566016bcc41e9000061010d55670de0b6b3a764000061010e5566470de4df82000061010f5561011080546001600160a01b0319163317905580156115e0576000805461ff001916905550565b610110546001600160a01b031633146118505760405162461bcd60e51b81526020600482015260096024820152682327a92124a22222a760b91b604482015260640161049e565b61119d613440565b600080600061186960975460ff1690565b156118865760405162461bcd60e51b815260040161049e906146e0565b6001600160a01b0385166118ac5760405162461bcd60e51b815260040161049e9061470a565b600084116118e45760405162461bcd60e51b815260206004820152600560248201526404c49513d360dc1b604482015260640161049e565b60006118ef86612759565b90506118fb8186612bc6565b929990985091965090945050505050565b6000814281101561192f5760405162461bcd60e51b815260040161049e90614688565b600260655414156119525760405162461bcd60e51b815260040161049e906146a9565b600260655560975460ff161561197a5760405162461bcd60e51b815260040161049e906146e0565b600085116119b85760405162461bcd60e51b815260206004820152600b60248201526a16915493d7d05353d5539560aa1b604482015260640161049e565b6001600160a01b0386166119de5760405162461bcd60e51b815260040161049e9061470a565b6001600160a01b038416611a045760405162461bcd60e51b815260040161049e9061470a565b856000611a1082612759565b9050611a276001600160a01b03831633838a612b6c565b611a32818888613498565b604080516001600160a01b038b81168252602082018b905291810183905291955087169033907ff5dd9317b9e63ac316ce44acc85f670b54b339cfa3e9076e1dd55065b922314b9060600160405180910390a35050600160655550949350505050565b6000808242811015611ab95760405162461bcd60e51b815260040161049e90614688565b60026065541415611adc5760405162461bcd60e51b815260040161049e906146a9565b600260655560975460ff1615611b045760405162461bcd60e51b815260040161049e906146e0565b6001600160a01b038916611b2a5760405162461bcd60e51b815260040161049e9061470a565b6001600160a01b038816611b505760405162461bcd60e51b815260040161049e9061470a565b876001600160a01b0316896001600160a01b03161415611ba15760405162461bcd60e51b815260206004820152600c60248201526b53414d455f4144445245535360a01b604482015260640161049e565b60008711611be45760405162461bcd60e51b815260206004820152601060248201526f16915493d7d19493d357d05353d5539560821b604482015260640161049e565b6001600160a01b038516611c0a5760405162461bcd60e51b815260040161049e9061470a565b886000611c1682612759565b90506000611c238b612759565b9050816001600160a01b0316637e1317fa6040518163ffffffff1660e01b815260040160206040518083038186803b158015611c5e57600080fd5b505afa158015611c72573d6000803e3d6000fd5b505050506040513d601f19601f82011682018060405250810190611c969190614728565b6001600160a01b0316816001600160a01b0316637e1317fa6040518163ffffffff1660e01b815260040160206040518083038186803b158015611cd857600080fd5b505afa158015611cec573d6000803e3d6000fd5b505050506040513d601f19601f82011682018060405250810190611d109190614728565b6001600160a01b031614611d365760405162461bcd60e51b815260040161049e90614745565b611d4182828c613052565b909650945085891115611d665760405162461bcd60e51b815260040161049e90614910565b611d7b6001600160a01b03841633848d612b6c565b60405162b64f3d60e51b8152600481018b90526001600160a01b038316906316c9e7a090602401600060405180830381600087803b158015611dbc57600080fd5b505af1158015611dd0573d6000803e3d6000fd5b50506040516313f3df3160e31b8152600481018990526001600160a01b0384169250639f9ef9889150602401600060405180830381600087803b158015611e1657600080fd5b505af1158015611e2a573d6000803e3d6000fd5b50505050806001600160a01b031663a0f0f604611e4a8761010e546137ed565b6040518263ffffffff1660e01b8152600401611e6891815260200190565b600060405180830381600087803b158015611e8257600080fd5b505af1158015611e96573d6000803e3d6000fd5b5050604051639e79eaa560e01b81526001600160a01b038b81166004830152602482018a905284169250639e79eaa59150604401600060405180830381600087803b158015611ee457600080fd5b505af1158015611ef8573d6000803e3d6000fd5b50505050876001600160a01b0316336001600160a01b03167f54787c404bb33c88e86f4baf88183a3b0141d0a848e6a9f7a13b66ae3a9b73d18e8e8e8b604051611f6994939291906001600160a01b0394851681529290931660208301526040820152606081019190915260800190565b60405180910390a35050600160655550919890975095505050505050565b6033546001600160a01b03163314611fb15760405162461bcd60e51b815260040161049e90614938565b670de0b6b3a7640000811115611fc657600080fd5b61010f5460408051918252602082018390527f193a6231bcc3d7de036c920f05884fe0d8e1dad662793abd049d33b4d83a45cd910160405180910390a161010f55565b60008061201860975460ff1690565b156120355760405162461bcd60e51b815260040161049e906146e0565b6001600160a01b03851661205b5760405162461bcd60e51b815260040161049e9061470a565b6001600160a01b0384166120815760405162461bcd60e51b815260040161049e9061470a565b600083116120b95760405162461bcd60e51b815260206004820152600560248201526404c49513d360dc1b604482015260640161049e565b60006120c486612759565b905060006120d186612759565b9050816001600160a01b0316637e1317fa6040518163ffffffff1660e01b815260040160206040518083038186803b15801561210c57600080fd5b505afa158015612120573d6000803e3d6000fd5b505050506040513d601f19601f820116820180604052508101906121449190614728565b6001600160a01b0316816001600160a01b0316637e1317fa6040518163ffffffff1660e01b815260040160206040518083038186803b15801561218657600080fd5b505afa15801561219a573d6000803e3d6000fd5b505050506040513d601f19601f820116820180604052508101906121be9190614728565b6001600160a01b0316146121e45760405162461bcd60e51b815260040161049e90614745565b60006121f08287612bc6565b92975095509091508190506122395760405162461bcd60e51b815260206004820152600f60248201526e09c9ea8be8a9c9eaa8e90be8682a69608b1b604482015260640161049e565b670de0b6b3a76400006122f0836001600160a01b031663705727b56040518163ffffffff1660e01b815260040160206040518083038186803b15801561227e57600080fd5b505afa158015612292573d6000803e3d6000fd5b505050506040513d601f19601f820116820180604052508101906122b691906148e0565b87856001600160a01b031663961be3916040518163ffffffff1660e01b815260040160206040518083038186803b158015610ac057600080fd5b101561232e5760405162461bcd60e51b815260206004820152600d60248201526c434f565f524154494f5f4c4f5760981b604482015260640161049e565b505050935093915050565b6033546001600160a01b031633146123635760405162461bcd60e51b815260040161049e90614938565b6001600160a01b0381166123895760405162461bcd60e51b815260040161049e9061470a565b610110546040516001600160a01b038084169216907faa37e6ba252409ccb1daf704a52d3f2fb61265b2f480371d6041193f1cf16ac290600090a361011080546001600160a01b0319166001600160a01b0392909216919091179055565b6033546001600160a01b031633146124115760405162461bcd60e51b815260040161049e90614938565b6001600160a01b0382166124375760405162461bcd60e51b815260040161049e9061470a565b6001600160a01b03811661245d5760405162461bcd60e51b815260040161049e9061470a565b6001600160a01b0382166000908152610115602052604090205460ff16156124b65760405162461bcd60e51b815260206004820152600c60248201526b41535345545f45584953545360a01b604482015260640161049e565b6124c0828261380b565b806001600160a01b0316826001600160a01b03167f0bb5715f0f217c2fe9a0c877ea87d474380c641102f3440ee2a4c8b9d979091860405160405180910390a35050565b6033546001600160a01b0316331461252e5760405162461bcd60e51b815260040161049e90614938565b670de0b6b3a764000084111561254357600080fd5b6000831161255057600080fd5b6101095461010a5461010b5461010c54604080519485526020850189905284019290925260608301869052608083015260a0820184905260c082015260e081018290527f4f79edc127ae2274ce8320073956fad0b9e727d4ed275b2d3665a75edaffb7a3906101000160405180910390a16101099390935561010a9190915561010b5561010c55565b606061011260000180548060200260200160405190810160405280929190818152602001828054801561263557602002820191906000526020600020905b81546001600160a01b03168152600190910190602001808311612617575b5050505050905090565b6033546001600160a01b031633146126695760405162461bcd60e51b815260040161049e90614938565b6001600160a01b0381166126ce5760405162461bcd60e51b815260206004820152602660248201527f4f776e61626c653a206e6577206f776e657220697320746865207a65726f206160448201526564647265737360d01b606482015260840161049e565b6115e08161335e565b6033546001600160a01b031633146127015760405162461bcd60e51b815260040161049e90614938565b670de0b6b3a764000081111561271657600080fd5b61010d5460408051918252602082018390527fbb59363309f944f517c724d17a8f3c89d62efc951e2d7768f7a9d7f307bcad7f910160405180910390a161010d55565b6001600160a01b0381166000908152610115602052604081205460ff166127b45760405162461bcd60e51b815260206004820152600f60248201526e1054d4d15517d393d517d1561254d5608a1b604482015260640161049e565b6001600160a01b0380831660009081526101136020526040902054166116d0565b6000806127e28686612bc6565b50919350915050818411156128095760405162461bcd60e51b815260040161049e90614910565b604051632770a7eb60e21b8152336004820152602481018690526001600160a01b03871690639dc29fac90604401600060405180830381600087803b15801561285157600080fd5b505af1158015612865573d6000803e3d6000fd5b50506040516313f3df3160e31b8152600481018590526001600160a01b0389169250639f9ef9889150602401600060405180830381600087803b1580156128ab57600080fd5b505af11580156128bf573d6000803e3d6000fd5b505060405163d8b8785360e01b8152600481018490526001600160a01b038916925063d8b878539150602401600060405180830381600087803b15801561290557600080fd5b505af1158015612919573d6000803e3d6000fd5b5050604051639e79eaa560e01b81526001600160a01b0386811660048301526024820186905289169250639e79eaa59150604401600060405180830381600087803b15801561296757600080fd5b505af115801561297b573d6000803e3d6000fd5b5050505050949350505050565b6101115460405163b3596f0760e01b81526001600160a01b038481166004830152600092169063b3596f079060240160206040518083038186803b1580156129cf57600080fd5b505afa1580156129e3573d6000803e3d6000fd5b505050506040513d601f19601f82011682018060405250810190612a0791906148e0565b6101115460405163b3596f0760e01b81526001600160a01b0385811660048301529293506000929091169063b3596f079060240160206040518083038186803b158015612a5357600080fd5b505afa158015612a67573d6000803e3d6000fd5b505050506040513d601f19601f82011682018060405250810190612a8b91906148e0565b905081811115612b005761010f5481670de0b6b3a7640000612aad85836148f9565b612ab79190614897565b612ac191906148cc565b1115612afb5760405162461bcd60e51b8152602060048201526009602482015268282924a1a2afa222ab60b91b604482015260640161049e565b612b66565b61010f5482670de0b6b3a7640000612b1884836148f9565b612b229190614897565b612b2c91906148cc565b1115612b665760405162461bcd60e51b8152602060048201526009602482015268282924a1a2afa222ab60b91b604482015260640161049e565b50505050565b604080516001600160a01b0385811660248301528416604482015260648082018490528251808303909101815260849091019091526020810180516001600160e01b03166323b872dd60e01b179052612b669085906138e9565b600080600080856001600160a01b03166318160ddd6040518163ffffffff1660e01b815260040160206040518083038186803b158015612c0557600080fd5b505afa158015612c19573d6000803e3d6000fd5b505050506040513d601f19601f82011682018060405250810190612c3d91906148e0565b85876001600160a01b031663705727b56040518163ffffffff1660e01b815260040160206040518083038186803b158015612c7757600080fd5b505afa158015612c8b573d6000803e3d6000fd5b505050506040513d601f19601f82011682018060405250810190612caf91906148e0565b612cb99190614897565b612cc391906148cc565b925060008311612d0d5760405162461bcd60e51b815260206004820152601560248201527424a729aaa32324a1a4a2a72a2fa624a8afa12aa92760591b604482015260640161049e565b612e086101095461010a5461010b5461010c548a6001600160a01b031663961be3916040518163ffffffff1660e01b815260040160206040518083038186803b158015612d5957600080fd5b505afa158015612d6d573d6000803e3d6000fd5b505050506040513d601f19601f82011682018060405250810190612d9191906148e0565b8b6001600160a01b031663705727b56040518163ffffffff1660e01b815260040160206040518083038186803b158015612dca57600080fd5b505afa158015612dde573d6000803e3d6000fd5b505050506040513d601f19601f82011682018060405250810190612e0291906148e0565b896139c0565b91506000612e14613ab5565b9050600191506000670de0b6b3a7640000821015612e3d57612e368583612f9f565b9050612e40565b50835b83811115612f4d57612e5284826148f9565b955085886001600160a01b031663961be3916040518163ffffffff1660e01b815260040160206040518083038186803b158015612e8e57600080fd5b505afa158015612ea2573d6000803e3d6000fd5b505050506040513d601f19601f82011682018060405250810190612ec691906148e0565b1015612f4857876001600160a01b031663961be3916040518163ffffffff1660e01b815260040160206040518083038186803b158015612f0557600080fd5b505afa158015612f19573d6000803e3d6000fd5b505050506040513d601f19601f82011682018060405250810190612f3d91906148e0565b955060009350600092505b612f59565b80935060009550600092505b505092959194509250565b600081612f726002826148cc565b612f84670de0b6b3a764000086614897565b612f8e9190614999565b612f9891906148cc565b9392505050565b6000670de0b6b3a7640000612fb56002826148cc565b612f848486614897565b60975460ff166130085760405162461bcd60e51b815260206004820152601460248201527314185d5cd8589b194e881b9bdd081c185d5cd95960621b604482015260640161049e565b6097805460ff191690557f5db9ee0a495bf2e6ff9c91a7834c1ba4fdd244a5e8aa4e537bd38aeae4b073aa335b6040516001600160a01b03909116815260200160405180910390a1565b6000806000613062868686613daf565b905080856001600160a01b031663961be3916040518163ffffffff1660e01b815260040160206040518083038186803b15801561309e57600080fd5b505afa1580156130b2573d6000803e3d6000fd5b505050506040513d601f19601f820116820180604052508101906130d691906148e0565b10156131185760405162461bcd60e51b81526020600482015260116024820152700929ca6aa8c8c9286928a9ca8be8682a69607b1b604482015260640161049e565b60006132176101095461010a5461010b5461010c548b6001600160a01b031663961be3916040518163ffffffff1660e01b815260040160206040518083038186803b15801561316657600080fd5b505afa15801561317a573d6000803e3d6000fd5b505050506040513d601f19601f8201168201806040525081019061319e91906148e0565b8c6001600160a01b031663705727b56040518163ffffffff1660e01b815260040160206040518083038186803b1580156131d757600080fd5b505afa1580156131eb573d6000803e3d6000fd5b505050506040513d601f19601f8201168201806040525081019061320f91906148e0565b8b6001613faf565b905060006133186101095461010a5461010b5461010c548b6001600160a01b031663961be3916040518163ffffffff1660e01b815260040160206040518083038186803b15801561326757600080fd5b505afa15801561327b573d6000803e3d6000fd5b505050506040513d601f19601f8201168201806040525081019061329f91906148e0565b8c6001600160a01b031663705727b56040518163ffffffff1660e01b815260040160206040518083038186803b1580156132d857600080fd5b505afa1580156132ec573d6000803e3d6000fd5b505050506040513d601f19601f8201168201806040525081019061331091906148e0565b896000613faf565b90506000613326838361406e565b905060006133348583612f9f565b90506133438161010d5461408d565b955061334f86826148f9565b96505050505050935093915050565b603380546001600160a01b038381166001600160a01b0319831681179093556040519116919082907f8be0079c531659141344cd1fd0a4f28419497f9722a3daafe3b4186f6b6457e090600090a35050565b600054610100900460ff166133d75760405162461bcd60e51b815260040161049e906149b1565b61119d614099565b600054610100900460ff166134065760405162461bcd60e51b815260040161049e906149b1565b6001606555565b600054610100900460ff166134345760405162461bcd60e51b815260040161049e906149b1565b6097805460ff19169055565b60975460ff16156134635760405162461bcd60e51b815260040161049e906146e0565b6097805460ff191660011790557f62e78cea01bee320cd4e420270b5ea74000d11b0c9f74754ebdbfc544b05a2586130353390565b600080846001600160a01b03166318160ddd6040518163ffffffff1660e01b815260040160206040518083038186803b1580156134d457600080fd5b505afa1580156134e8573d6000803e3d6000fd5b505050506040513d601f19601f8201168201806040525081019061350c91906148e0565b90506000856001600160a01b031663705727b56040518163ffffffff1660e01b815260040160206040518083038186803b15801561354957600080fd5b505afa15801561355d573d6000803e3d6000fd5b505050506040513d601f19601f8201168201806040525081019061358191906148e0565b905060006136106101095461010a5461010b5461010c548b6001600160a01b031663961be3916040518163ffffffff1660e01b815260040160206040518083038186803b1580156135d157600080fd5b505afa1580156135e5573d6000803e3d6000fd5b505050506040513d601f19601f8201168201806040525081019061360991906148e0565b878c6140c9565b9050816136285761362181876148f9565b935061364b565b818361363483896148f9565b61363e9190614897565b61364891906148cc565b93505b6000613655613ab5565b9050670de0b6b3a7640000811015613674576136718582612f64565b94505b600085116136bc5760405162461bcd60e51b8152602060048201526015602482015274125394d551919250d251539517d3125457d3525395605a1b604482015260640161049e565b60405162b64f3d60e51b8152600481018890526001600160a01b038916906316c9e7a090602401600060405180830381600087803b1580156136fd57600080fd5b505af1158015613711573d6000803e3d6000fd5b50505050876001600160a01b031663a0f0f604838961373091906148f9565b6040518263ffffffff1660e01b815260040161374e91815260200190565b600060405180830381600087803b15801561376857600080fd5b505af115801561377c573d6000803e3d6000fd5b50506040516340c10f1960e01b81526001600160a01b038981166004830152602482018990528b1692506340c10f199150604401600060405180830381600087803b1580156137ca57600080fd5b505af11580156137de573d6000803e3d6000fd5b50505050505050509392505050565b6000612f9861380483670de0b6b3a76400006148f9565b8490612f9f565b6001600160a01b0382166000908152610115602052604090205460ff161561385c576001600160a01b0391821660009081526101136020526040902080546001600160a01b03191691909216179055565b6001600160a01b03808316600081815261011560209081526040808320805460ff19166001908117909155610113835281842080549688166001600160a01b03199788161790556101128054610114909452918420839055820181559091527fe015f902c527607628f7649074b24d3efd1151f9f546ce1aecf38852c06da8830180549092161790555050565b600061393e826040518060400160405280602081526020017f5361666545524332303a206c6f772d6c6576656c2063616c6c206661696c6564815250856001600160a01b031661416e9092919063ffffffff16565b8051909150156139bb578080602001905181019061395c91906149fc565b6139bb5760405162461bcd60e51b815260206004820152602a60248201527f5361666545524332303a204552433230206f7065726174696f6e20646964206e6044820152691bdd081cdd58d8d9595960b21b606482015260840161049e565b505050565b6000806139cd8585612f64565b9050670de0b6b3a764000081106139e8576000915050613aaa565b8284116139f9576000915050613aaa565b600083861115613a1457613a0d84876148f9565b9050613a18565b5060005b6000613a2e613a2786886148f9565b8390612f64565b90506000613a3f8c8c8c8c8861417d565b90506000613a508d8d8d8d8761417d565b90506000613a698e8e8e8e670de0b6b3a764000061417d565b9050613a758984612f9f565b613a7f828a612f9f565b613a8d8461111f8c8e6148f9565b613a979190614999565b613aa191906148f9565b96505050505050505b979650505050505050565b60008080805b61011254811015613d7d576000613ad1826141f4565b6101115460405163b3596f0760e01b81526001600160a01b0380841660048301529293506000929091169063b3596f079060240160206040518083038186803b158015613b1d57600080fd5b505afa158015613b31573d6000803e3d6000fd5b505050506040513d601f19601f82011682018060405250810190613b5591906148e0565b6001600160a01b038084166000908152610113602052604081205492935091166001600160a01b031663313ce5676040518163ffffffff1660e01b815260040160206040518083038186803b158015613bad57600080fd5b505afa158015613bc1573d6000803e3d6000fd5b505050506040513d601f19601f82011682018060405250810190613be5919061476b565b613bf0906012614a1e565b613bfb90600a614888565b90508181613c22856001600160a01b03908116600090815261011360205260409020541690565b6001600160a01b031663961be3916040518163ffffffff1660e01b815260040160206040518083038186803b158015613c5a57600080fd5b505afa158015613c6e573d6000803e3d6000fd5b505050506040513d601f19601f82011682018060405250810190613c9291906148e0565b613c9c9190614897565b613ca69190614897565b613cb09087614999565b95508181613cd7856001600160a01b03908116600090815261011360205260409020541690565b6001600160a01b031663705727b56040518163ffffffff1660e01b815260040160206040518083038186803b158015613d0f57600080fd5b505afa158015613d23573d6000803e3d6000fd5b505050506040513d601f19601f82011682018060405250810190613d4791906148e0565b613d519190614897565b613d5b9190614897565b613d659086614999565b94505050508080613d7590614a41565b915050613abb565b50801580613d89575081155b15613d9e57670de0b6b3a76400009250505090565b613da88282612f64565b9250505090565b6000613e9b846001600160a01b0316632495a5996040518163ffffffff1660e01b815260040160206040518083038186803b158015613ded57600080fd5b505afa158015613e01573d6000803e3d6000fd5b505050506040513d601f19601f82011682018060405250810190613e259190614728565b846001600160a01b0316632495a5996040518163ffffffff1660e01b815260040160206040518083038186803b158015613e5e57600080fd5b505afa158015613e72573d6000803e3d6000fd5b505050506040513d601f19601f82011682018060405250810190613e969190614728565b612988565b836001600160a01b031663313ce5676040518163ffffffff1660e01b815260040160206040518083038186803b158015613ed457600080fd5b505afa158015613ee8573d6000803e3d6000fd5b505050506040513d601f19601f82011682018060405250810190613f0c919061476b565b613f1790600a614888565b836001600160a01b031663313ce5676040518163ffffffff1660e01b815260040160206040518083038186803b158015613f5057600080fd5b505afa158015613f64573d6000803e3d6000fd5b505050506040513d601f19601f82011682018060405250810190613f88919061476b565b613f9390600a614888565b613f9d9084614897565b613fa791906148cc565b949350505050565b600080613fbc8686612f64565b905060008315613fdb57613fd486610b02878a614999565b9050613fec565b613fe986610b02878a6148f9565b90505b80821415613fff57600092505050614062565b600061400e8c8c8c8c8761417d565b9050600061401f8d8d8d8d8761417d565b90508284111561404b5761404061403684866148f9565b610b0284846148f9565b945050505050614062565b61404061405885856148f9565b610b0283856148f9565b98975050505050505050565b60008161408384670de0b6b3a7640000614999565b612f9891906148f9565b6000612f988383612f9f565b600054610100900460ff166140c05760405162461bcd60e51b815260040161049e906149b1565b61119d3361335e565b6000826140d857506000613aaa565b60006140e48585612f64565b9050670de0b6b3a764000081116140ff576000915050613aaa565b600061411861410e8587614999565b610b028689614999565b905060006141298b8b8b8b8761417d565b9050600061413a8c8c8c8c8761417d565b90506141468783612f9f565b6141548261111f898b614999565b61415e91906148f9565b9c9b505050505050505050505050565b6060613fa78484600085614228565b6000828210156141985761419182856148f9565b90506141eb565b6141916b033b2e3c9fd0803ce8000000670de0b6b3a76400006141d088826141c08589614897565b6141ca91906148cc565b9061434e565b6141da9190614897565b6141e491906148cc565b8790612f64565b95945050505050565b6000610112600001828154811061420d5761420d61496d565b6000918252602090912001546001600160a01b031692915050565b6060824710156142895760405162461bcd60e51b815260206004820152602660248201527f416464726573733a20696e73756666696369656e742062616c616e636520666f6044820152651c8818d85b1b60d21b606482015260840161049e565b6001600160a01b0385163b6142e05760405162461bcd60e51b815260206004820152601d60248201527f416464726573733a2063616c6c20746f206e6f6e2d636f6e7472616374000000604482015260640161049e565b600080866001600160a01b031685876040516142fc9190614a88565b60006040518083038185875af1925050503d8060008114614339576040519150601f19603f3d011682016040523d82523d6000602084013e61433e565b606091505b5091509150613aaa8282866143c4565b600061435b600283614aa4565b614371576b033b2e3c9fd0803ce8000000614373565b825b90506143806002836148cc565b91505b81156116d05761439383846143fd565b92506143a0600283614aa4565b156143b2576143af81846143fd565b90505b6143bd6002836148cc565b9150614383565b606083156143d3575081612f98565b8251156143e35782518084602001fd5b8160405162461bcd60e51b815260040161049e9190614ab8565b60006b033b2e3c9fd0803ce8000000612fb56002826148cc565b6001600160a01b03811681146115e057600080fd5b600080600080600060a0868803121561444457600080fd5b853561444f81614417565b94506020860135935060408601359250606086013561446d81614417565b949793965091946080013592915050565b60008060008060008060c0878903121561449757600080fd5b86356144a281614417565b955060208701356144b281614417565b9450604087013593506060870135925060808701356144d081614417565b8092505060a087013590509295509295509295565b600080604083850312156144f857600080fd5b823561450381614417565b9150602083013561451381614417565b809150509250929050565b60008060006060848603121561453357600080fd5b833561453e81614417565b9250602084013561454e81614417565b929592945050506040919091013590565b60006020828403121561457157600080fd5b5035919050565b60006020828403121561458a57600080fd5b8135612f9881614417565b600080604083850312156145a857600080fd5b82356145b381614417565b946020939093013593505050565b600080600080608085870312156145d757600080fd5b84356145e281614417565b93506020850135925060408501356145f981614417565b9396929550929360600135925050565b6000806000806080858703121561461f57600080fd5b5050823594602084013594506040840135936060013592509050565b6020808252825182820181905260009190848201906040850190845b8181101561467c5783516001600160a01b031683529284019291840191600101614657565b50909695505050505050565b6020808252600790820152661156141254915160ca1b604082015260600190565b6020808252601f908201527f5265656e7472616e637947756172643a207265656e7472616e742063616c6c00604082015260600190565b60208082526010908201526f14185d5cd8589b194e881c185d5cd95960821b604082015260600190565b6020808252600490820152635a45524f60e01b604082015260600190565b60006020828403121561473a57600080fd5b8151612f9881614417565b6020808252600c908201526b444946465f4147475f41434360a01b604082015260600190565b60006020828403121561477d57600080fd5b815160ff81168114612f9857600080fd5b634e487b7160e01b600052601160045260246000fd5b600181815b808511156147df5781600019048211156147c5576147c561478e565b808516156147d257918102915b93841c93908002906147a9565b509250929050565b6000826147f6575060016116d0565b81614803575060006116d0565b816001811461481957600281146148235761483f565b60019150506116d0565b60ff8411156148345761483461478e565b50506001821b6116d0565b5060208310610133831016604e8410600b8410161715614862575081810a6116d0565b61486c83836147a4565b80600019048211156148805761488061478e565b029392505050565b6000612f9860ff8416836147e7565b60008160001904831182151516156148b1576148b161478e565b500290565b634e487b7160e01b600052601260045260246000fd5b6000826148db576148db6148b6565b500490565b6000602082840312156148f257600080fd5b5051919050565b60008282101561490b5761490b61478e565b500390565b6020808252600e908201526d414d4f554e545f544f4f5f4c4f5760901b604082015260600190565b6020808252818101527f4f776e61626c653a2063616c6c6572206973206e6f7420746865206f776e6572604082015260600190565b634e487b7160e01b600052603260045260246000fd5b634e487b7160e01b600052603160045260246000fd5b600082198211156149ac576149ac61478e565b500190565b6020808252602b908201527f496e697469616c697a61626c653a20636f6e7472616374206973206e6f74206960408201526a6e697469616c697a696e6760a81b606082015260800190565b600060208284031215614a0e57600080fd5b81518015158114612f9857600080fd5b600060ff821660ff841680821015614a3857614a3861478e565b90039392505050565b6000600019821415614a5557614a5561478e565b5060010190565b60005b83811015614a77578181015183820152602001614a5f565b83811115612b665750506000910152565b60008251614a9a818460208701614a5c565b9190910192915050565b600082614ab357614ab36148b6565b500690565b6020815260008251806020840152614ad7816040850160208701614a5c565b601f01601f1916919091016040019291505056fea2646970667358221220c44e9b222dd958d33145bb39c9bf5b08849f2e87097a37dfec070f6226365cf164736f6c63430008090033",
  "linkReferences": {},
  "deployedLinkReferences": {}
}