{
  "_format": "hh-sol-artifact-1",
  "contractName": "PlatypusRouter01",
  "sourceName": "contracts/PlatypusRouter01.sol",
  "abi": [
    {
      "anonymous": false,
      "inputs": [
        {
          "indexed": true,
          "internalType": "address",
          "name": "previousOwner",
          "type": "address"
        },
        {
          "indexed": true,
          "internalType": "address",
          "name": "newOwner",
          "type": "address"
        }
      ],
      "name": "OwnershipTransferred",
      "type": "event"
    },
    {
      "inputs": [
        {
          "internalType": "address[]",
          "name": "tokens",
          "type": "address[]"
        },
        {
          "internalType": "address",
          "name": "pool",
          "type": "address"
        }
      ],
      "name": "approveSpendingByPool",
      "outputs": [],
      "stateMutability": "nonpayable",
      "type": "function"
    },
    {
      "inputs": [],
      "name": "owner",
      "outputs": [
        {
          "internalType": "address",
          "name": "",
          "type": "address"
        }
      ],
      "stateMutability": "view",
      "type": "function"
    },
    {
      "inputs": [],
      "name": "renounceOwnership",
      "outputs": [],
      "stateMutability": "nonpayable",
      "type": "function"
    },
    {
      "inputs": [
        {
          "internalType": "address[]",
          "name": "tokenPath",
          "type": "address[]"
        },
        {
          "internalType": "address[]",
          "name": "poolPath",
          "type": "address[]"
        },
        {
          "internalType": "uint256",
          "name": "fromAmount",
          "type": "uint256"
        },
        {
          "internalType": "uint256",
          "name": "minimumToAmount",
          "type": "uint256"
        },
        {
          "internalType": "address",
          "name": "to",
          "type": "address"
        },
        {
          "internalType": "uint256",
          "name": "deadline",
          "type": "uint256"
        }
      ],
      "name": "swapTokensForTokens",
      "outputs": [
        {
          "internalType": "uint256",
          "name": "amountOut",
          "type": "uint256"
        },
        {
          "internalType": "uint256",
          "name": "haircut",
          "type": "uint256"
        }
      ],
      "stateMutability": "nonpayable",
      "type": "function"
    },
    {
      "inputs": [
        {
          "internalType": "address",
          "name": "newOwner",
          "type": "address"
        }
      ],
      "name": "transferOwnership",
      "outputs": [],
      "stateMutability": "nonpayable",
      "type": "function"
    }
  ],
  "bytecode": "0x608060405234801561001057600080fd5b5061001a33610023565b60018055610073565b600080546001600160a01b038381166001600160a01b0319831681178455604051919092169283917f8be0079c531659141344cd1fd0a4f28419497f9722a3daafe3b4186f6b6457e09190a35050565b610cd1806100826000396000f3fe608060405234801561001057600080fd5b50600436106100575760003560e01c806321579b791461005c578063715018a6146100895780638d8f82e6146100935780638da5cb5b146100a6578063f2fde38b146100c1575b600080fd5b61006f61006a366004610a24565b6100d4565b604080519283526020830191909152015b60405180910390f35b610091610334565b005b6100916100a1366004610ac0565b61036a565b6000546040516001600160a01b039091168152602001610080565b6100916100cf366004610b14565b610464565b60008082428110156101175760405162461bcd60e51b8152602060048201526007602482015266195e1c1a5c995960ca1b60448201526064015b60405180910390fd5b6002600154141561016a5760405162461bcd60e51b815260206004820152601f60248201527f5265656e7472616e637947756172643a207265656e7472616e742063616c6c00604482015260640161010e565b6002600155866101b25760405162461bcd60e51b81526020600482015260136024820152721a5b9d985b1a5908199c9bdb48185b5bdd5b9d606a1b604482015260640161010e565b60028a10156101f85760405162461bcd60e51b81526020600482015260126024820152710d2dcecc2d8d2c840e8ded6cadc40e0c2e8d60731b604482015260640161010e565b61020360018b610b45565b88146102455760405162461bcd60e51b81526020600482015260116024820152700d2dcecc2d8d2c840e0deded840e0c2e8d607b1b604482015260640161010e565b6001600160a01b03851661028a5760405162461bcd60e51b815260206004820152600c60248201526b7a65726f206164647265737360a01b604482015260640161010e565b6102c93330898e8e60008181106102a3576102a3610b5c565b90506020020160208101906102b89190610b14565b6001600160a01b03169291906104ff565b6102d78b8b8b8b8b8a610559565b9093509150858310156103205760405162461bcd60e51b8152602060048201526011602482015270616d6f756e744f757420746f6f206c6f7760781b604482015260640161010e565b506001805590999098509650505050505050565b6000546001600160a01b0316331461035e5760405162461bcd60e51b815260040161010e90610b72565b6103686000610712565b565b6000546001600160a01b031633146103945760405162461bcd60e51b815260040161010e90610b72565b60005b8281101561045e578383828181106103b1576103b1610b5c565b90506020020160208101906103c69190610b14565b60405163095ea7b360e01b81526001600160a01b0384811660048301526000196024830152919091169063095ea7b390604401602060405180830381600087803b15801561041357600080fd5b505af1158015610427573d6000803e3d6000fd5b505050506040513d601f19601f8201168201806040525081019061044b9190610ba7565b508061045681610bc9565b915050610397565b50505050565b6000546001600160a01b0316331461048e5760405162461bcd60e51b815260040161010e90610b72565b6001600160a01b0381166104f35760405162461bcd60e51b815260206004820152602660248201527f4f776e61626c653a206e6577206f776e657220697320746865207a65726f206160448201526564647265737360d01b606482015260840161010e565b6104fc81610712565b50565b604080516001600160a01b0385811660248301528416604482015260648082018490528251808303909101815260849091019091526020810180516001600160e01b03166323b872dd60e01b17905261045e908590610762565b600080808481805b8881101561070357801580156105775750600189145b15610584578691506105b5565b80610591573091506105b5565b61059c60018a610b45565b8110156105ae573091508592506105b5565b8691508592505b8989828181106105c7576105c7610b5c565b90506020020160208101906105dc9190610b14565b6001600160a01b0316639908fc8b8d8d848181106105fc576105fc610b5c565b90506020020160208101906106119190610b14565b8e8e61061e866001610be4565b81811061062d5761062d610b5c565b90506020020160208101906106429190610b14565b6040516001600160e01b031960e085901b1681526001600160a01b03928316600482015290821660248201526044810187905260006064820152908516608482015260001960a482015260c4016040805180830381600087803b1580156106a857600080fd5b505af11580156106bc573d6000803e3d6000fd5b505050506040513d601f19601f820116820180604052508101906106e09190610bfc565b90965093506106ef8486610be4565b9450806106fb81610bc9565b915050610561565b50505050965096945050505050565b600080546001600160a01b038381166001600160a01b0319831681178455604051919092169283917f8be0079c531659141344cd1fd0a4f28419497f9722a3daafe3b4186f6b6457e09190a35050565b60006107b7826040518060400160405280602081526020017f5361666545524332303a206c6f772d6c6576656c2063616c6c206661696c6564815250856001600160a01b03166108399092919063ffffffff16565b80519091501561083457808060200190518101906107d59190610ba7565b6108345760405162461bcd60e51b815260206004820152602a60248201527f5361666545524332303a204552433230206f7065726174696f6e20646964206e6044820152691bdd081cdd58d8d9595960b21b606482015260840161010e565b505050565b60606108488484600085610852565b90505b9392505050565b6060824710156108b35760405162461bcd60e51b815260206004820152602660248201527f416464726573733a20696e73756666696369656e742062616c616e636520666f6044820152651c8818d85b1b60d21b606482015260840161010e565b6001600160a01b0385163b61090a5760405162461bcd60e51b815260206004820152601d60248201527f416464726573733a2063616c6c20746f206e6f6e2d636f6e7472616374000000604482015260640161010e565b600080866001600160a01b031685876040516109269190610c4c565b60006040518083038185875af1925050503d8060008114610963576040519150601f19603f3d011682016040523d82523d6000602084013e610968565b606091505b5091509150610978828286610983565b979650505050505050565b6060831561099257508161084b565b8251156109a25782518084602001fd5b8160405162461bcd60e51b815260040161010e9190610c68565b60008083601f8401126109ce57600080fd5b50813567ffffffffffffffff8111156109e657600080fd5b6020830191508360208260051b8501011115610a0157600080fd5b9250929050565b80356001600160a01b0381168114610a1f57600080fd5b919050565b60008060008060008060008060c0898b031215610a4057600080fd5b883567ffffffffffffffff80821115610a5857600080fd5b610a648c838d016109bc565b909a50985060208b0135915080821115610a7d57600080fd5b50610a8a8b828c016109bc565b9097509550506040890135935060608901359250610aaa60808a01610a08565b915060a089013590509295985092959890939650565b600080600060408486031215610ad557600080fd5b833567ffffffffffffffff811115610aec57600080fd5b610af8868287016109bc565b9094509250610b0b905060208501610a08565b90509250925092565b600060208284031215610b2657600080fd5b61084b82610a08565b634e487b7160e01b600052601160045260246000fd5b600082821015610b5757610b57610b2f565b500390565b634e487b7160e01b600052603260045260246000fd5b6020808252818101527f4f776e61626c653a2063616c6c6572206973206e6f7420746865206f776e6572604082015260600190565b600060208284031215610bb957600080fd5b8151801515811461084b57600080fd5b6000600019821415610bdd57610bdd610b2f565b5060010190565b60008219821115610bf757610bf7610b2f565b500190565b60008060408385031215610c0f57600080fd5b505080516020909101519092909150565b60005b83811015610c3b578181015183820152602001610c23565b8381111561045e5750506000910152565b60008251610c5e818460208701610c20565b9190910192915050565b6020815260008251806020840152610c87816040850160208701610c20565b601f01601f1916919091016040019291505056fea26469706673582212201b4cf5f01580b710e51549659545e4ba4066af32f2ca378766fe224408ce7a8064736f6c63430008090033",
  "linkReferences": {},
  "deployedLinkReferences": {}
}